:020000040800F2
:1000000000000120550300084303000845030008D1
:1000100047030008490300084B03000800000000E4
:100020000000000000000000000000004D03000878
:100030004F030008000000005103000853030008AC
:100040009903000899030008990300089903000820
:100050009903000899030008990300089903000810
:100060009903000899030008990300089903000800
:1000700099030008990300089903000899030008F0
:1000800099030008990300089903000899030008E0
:1000900099030008990300089903000899030008D0
:1000A00099030008990300089903000899030008C0
:1000B00099030008990300089903000899030008B0
:1000C00099030008990300089903000899030008A0
:1000D0009903000899030008990300089903000890
:1000E0009903000899030008990300089903000880
:1000F0009903000899030008990300089903000870
:10010000990300089903000899030008990300085F
:10011000990300089903000899030008990300084F
:10012000990300089903000899030008990300083F
:1001300000000000000000000000000000000000BF
:1001400000000000000000000000000000000000AF
:10015000000000000000000000000000000000009F
:10016000000000000000000000000000000000008F
:10017000000000000000000000000000000000007F
:10018000000000000000000000000000000000006F
:10019000000000000000000000000000000000005F
:1001A000000000000000000000000000000000004F
:1001B000000000000000000000000000000000003F
:1001C000000000000000000000000000000000002F
:1001D000000000000000000000000000000000001F
:0401E0005FF8E0F1F3
:1001E40010B5054C237833B9044B13B10448AFF36D
:1001F40000800123237010BD0000002000000000D7
:100204009C03000808B5034B1BB103490348AFF333
:10021400008008BD00000000040000209C030008CA
:1002240082B00023019300932C4A136843F4803373
:1002340013602A4B1B6803F400330093019B0133C2
:100244000193009B1BB9019BB3F5A06FF1D1234B24
:100254001B6813F4003F06D001230093009B012B7D
:1002640004D002B0704700230093F7E71C4B1A68D0
:1002740042F010021A601A6822F003021A601A6827
:1002840042F002021A60A3F580535A685A605A6811
:100294005A605A6842F480625A605A6822F47C12A6
:1002A4005A605A6842F4E8125A601A6842F080723E
:1002B4001A600A4B1B6813F0007FFAD0074B5A6888
:1002C40022F003025A605A6842F002025A60034B59
:1002D4005B6803F00C03082BF9D1C2E7001002405D
:1002E4000020024008B5FFF79BFF08BD08B5104B7E
:1002F4001A6842F001021A6059680E4A0A405A60AC
:100304001A6822F0847222F480321A601A6822F485
:1003140080221A605A6822F4FE025A604FF41F02C7
:100324009A60FFF7DFFF044B4FF000629A6008BD4C
:10033400001002400000FFF800ED00E0FEE7704707
:10034400FEE7FEE7FEE7FEE7704770477047704739
:10035400002103E00A4B5B584350043109480A4B1F
:1003640042189A42F6D3094A02E0002342F8043BB9
:10037400074B9A42F9D3FFF7B9FFFFF7DFFF704746
:10038400BC03000800000020000000200000002042
:100394001C000020FEE70000F8B500BFF8BC08BC54
:1003A4009E467047F8B500BFF8BC08BC9E4670472F
:0403B4000902000832
:0403B800E501000853
:040000050800035597
:00000001FF
